:100000000C9472000C94A6000C94A6000C94A6000C
:100010000C94A6000C94A6000C94A6000C94A600C8
:100020000C94A6000C94A6000C94A6000C94A600B8
:100030000C94A6000C94A6000C94A6000C94A600A8
:100040000C94A6000C94A6000C94A6000C94A60098
:100050000C94A6000C94A6000C94A6000C94A60088
:100060000C94A6000C94A6000C94A6000C94A60078
:100070000C94A6000C94A6000C94A6000C94A60068
:100080000C94A6000C94A6000C94A6000C94A60058
:100090000C94A6000C94A6000C94A6000C94A60048
:1000A0000C94A6000C94A6000C94A6000C94A60038
:1000B0000C94A6000C94A6000C94A6000C94A60028
:1000C0000C94A6000C94A6000C94A6000C94A60018
:1000D0000C94A6000C94A6000C94A6000C94A60008
:1000E0000C94A60011241FBECFEFD1E2DEBFCDBF1E
:1000F00000E00CBF0E9480000C949B00F894FFCF9E
:100100008FEF87B988B981E02FEF4B99FECF0FC0F1
:10011000982F909598B93FEB47E299E031504040D5
:100120009040E1F700C00000880F09F481E04B9B8C
:06013000EFCF28B9EACF71
:10013600EC010E94AB000E94AA00CE010E94AC0016
:06014600CE010E94A8009A
:04014C000C9400000F
:040150000E947E008B
:0201540008950C
:0201560008950A
:02015800089508
:00000001FF
