:100000000C9492000C947C090C947C090C947C094F
:100010000C947C090C947C090C947C090C947C094C
:100020000C947C090C947C090C947C090C947C093C
:100030000C947C090C947C090C947C090C947C092C
:100040000C947C090C947C090C947C090C947C091C
:100050000C947C090C947C090C947C090C947C090C
:100060000C947C090C947C090C947C090C947C09FC
:100070000C947C090C947C090C947C090C947C09EC
:100080000C947C090C947C090C947C090C947C09DC
:100090000C947C090C947C090C947C090C947C09CC
:1000A0000C947C090C947C090C947C090C947C09BC
:1000B0000C947C090C947C090C947C090C947C09AC
:1000C0000C947C090C947C090C947C090C947C099C
:1000D0000C947C090C947C090C947C090C947C098C
:1000E0000C947C0902000202800202033F00130606
:1000F0000C94E3060C94B2030C9460060C94C600B6
:100100000C94A7060C94BC080C941D070C9468086A
:100110000C94BB050C94FC080C94B8070C94F804E0
:100120000C94C40211241FBECFEFD1E2DEBFCDBFBD
:1001300000E00CBFE4EEF0E040E019C0B791A791F9
:1001400037912791079107FD0EC097918791EF0195
:10015000F92FE82F0BBF07900D92A217B307D9F71D
:10016000FE011BBE04C01D92A217B307E1F7E03FDA
:10017000F40721F70E941E040C945009F894FFCF55
:10018000AEE0B0E0E6ECF0E00C9482084C016B01CC
:100190001A8219828FEF9FEF9C838B831E821D82B0
:1001A00058874F833A872987A12CB12CD6016D90AF
:1001B0007C90F301EA0DFB1D808181110FC0D601F7
:1001C000ED93FC938081853209F0D3C13F01BFEFED
:1001D0006B1A7B0AF6017182608219C0853279F34D
:1001E000B401082E000C990B0E940E064FEFA41AC2
:1001F000B40ADCCF8C32ACF08D32F9F489819A816B
:1002000081609A8389833196D601ED93FC93D60160
:10021000ED91FC9180818B3269F789819A818460AC
:10022000F0CF803221F489819A818860EACF8332CD
:1002300051F489819A818061E4CF803321F48981EE
:100240009A818260DECFB701C6010E9484079E8337
:100250008D8397FF0BC029813A81B1E02B273A8328
:1002600029839195819591099E838D8389819A81B6
:1002700080FF03C08D7F9A838983D601ED91FC9125
:10028000119780818E3249F43196ED93FC93B7013A
:10029000C6010E9484079C838B83C6010E942508A7
:1002A000582ED601ED91FC918081082E000C990BFF
:1002B0000E946D09893609F443C084F4833609F439
:1002C00002C134F4853209F427C18136E1F030C12E
:1002D0008436B1F188360CF4D9C02AC1803709F4CC
:1002E0009AC03CF48E3609F4BCC08F3609F461C064
:1002F0001FC1853709F440C0883709F476C08337B9
:1003000009F016C1F3C0652D70E0A701CE010B9670
:100310000E940000892B09F426C1D601ED91FC91C1
:100320001197CF0101968D939C932081AE01455F7B
:100330005F4FBE016F5F7F4FC4010E94000010C17C
:10034000652D70E0970141E050E0CE010B960E94D0
:100350008A04892B09F407C1F601808191810196F5
:1003600091838083AE01455F5F4FBE016F5F7F4F1A
:10037000C4010E94AC03F4C0652D70E0970140E019
:1003800050E0CE010B960E948A04892B09F4EBC041
:10039000D6018D919C91119701968D939C93AE01FE
:1003A000455F5F4FBE016F5F7F4FC4010E945A06D9
:1003B000D7C0652D70E0970140E050E0CE010B966C
:1003C0000E948A04892B09F4CEC0F60180819181B4
:1003D000019691838083AE01455F5F4FBE016F5FE1
:1003E0007F4FC4010E94B505BBC0652D70E0970129
:1003F00040E050E0CE010B960E948A04892B09F45C
:10040000B2C0D601ED91FC911197CF0101968D9369
:100410009C9320811CC0970140E050E060EF70E0A9
:10042000CE010B960E948A04892B09F49CC0F60128
:10043000808191810196918380838B859C85892B16
:1004400029F420E030E049E353E084C028E7AE011E
:10045000455F5F4FBE016F5F7F4FC4010E94BE02C8
:100460007FC0A501400F511F652D70E09701CE019F
:100470000B960E940000892B09F475C0D6018D915E
:100480009C91119701968D939C9373C0652D70E09C
:10049000A701CE010B960E940000892B09F463C0CE
:1004A000D601ED91FC911197CF0101968D939C930C
:1004B0002081AE01455F5F4FBE016F5F7F4FC4017A
:1004C0000E9400004DC0B0E85B124DC0F601808173
:1004D0009181019691838083D701ED91FC911197D1
:1004E000CF0102968D939C93808120C0B0E85B126F
:1004F0003AC0F60180819181019691838083D70172
:10050000ED91FC911197CF0102968D939C934081C0
:10051000518120E030E01EC0B0E85B1224C0F6013B
:10052000208131812F5F3F4F318320838B870DC026
:1005300085E28B87D6016D927C921A8219821E8287
:100540001D828FEF9FEF9C838B8321E030E0AE0113
:10055000455F5F4FBE016F5F7F4FC4010E94B207CE
:100560008A0D9B1D07C0F6018081918101969183C0
:0C0570008083C5012E96EFE00C949E08DD
:10057C00AFE0B0E0E4ECF2E00C947F081C016B01FE
:10058C005A8349832B83FB018281938184809580DC
:10059C0000811181A680B78097FD02C00D7F02C03B
:1005AC0081E090E0E981FA81408051806280738023
:1005BC009801207133273D832C83740104FF08C0FC
:1005CC00411451046104710419F032E0E31AF1088A
:1005DC00F801E870FF27FF83EE8303FF03C0F1E00F
:1005EC00EF1AF108F6010084F185E02D3197FF87B1
:1005FC00EE87EA0DFB1D10829C012E193F093987ED
:10060C002887C801827099279B878A87EB818E2F58
:10061C00EE0F990B9C01215431093D872C872E85B7
:10062C003F852230310530F48C819D81892B09F076
:10063C0042C05CC0411451046104710461F18E85A7
:10064C009F8501979F878E87C2018F7099278A306B
:10065C00910514F4C09602C0895A9F4FEC85FD8514
:10066C007A9748F49C012062215631092A313105D0
:10067C0010F40E946409EE85FF85EA0DFB1D808352
:10068C00F1E0EF1AF10884E076946794579447945C
:10069C008A95D1F7C4CF888599858E0D9F1D181624
:1006AC0019066CF21E141F040CF0BECFEA85FB85F4
:1006BC00EF2B29F6B9CFE981FA8180819181A28152
:1006CC00B381892B8A2B8B2B89F0EE85FF85EA0D64
:1006DC00FB1D31972B8120838E859F8502979F87E9
:1006EC008E87FC01EA0DFB1D80E38083EE81FF8188
:1006FC00EF2B59F02E853F85215031093F872E87EE
:10070C00F901EA0DFB1D80E28083F60140855185DD
:10071C00415051092E853F85421B530BB9016A0D7F
:10072C007B1D9401C1010E9417079C01F10180817E
:10073C00918190FF06C0F601828193818217930705
:0C074C000CF4C9012F96E2E10C949B080C
:10075800A2E0B0E0E2EBF3E00C947F083C016B010F
:10076800FB0122813381A480B580808191819A83A5
:10077800898386809780FA01208031804280538067
:10078800B201A10157FE07C044275527BA014219F3
:1007980053096409750937FD03C08D7F9A838983DE
:1007A800950157FC05C0898182FD02C083FF02C004
:1007B80021503109CE0101967C010AE010E0C60102
:1007C8000E94F20457FC03C0298122FF0AC0019746
:1007D800F401E80FF91F57FC02C02BE209C02DE213
:1007E80007C023FF06C00197F401E80FF91F20E2B4
:1007F800208309811A81F6014085518541505109AC
:10080800481B590BB401680F791F9501C3010E9459
:1008180017079C01F3018081918190FF06C0F601C2
:1008280082819381821793070CF4C9012296E2E131
:040838000C949B0879
:10083C008F929F92AF92BF92CF92DF92EF92FF92E4
:10084C000F931F93CF93DF93CDB7DEB7A0970FB65F
:10085C00F894DEBF0FBECDBF0E9408092FEF30E722
:10086C0082E0215030408040E1F700C000000E943F
:10087C0050074B015C01C72ED82EE92EFF24FF92A6
:10088C00EF92DF92CF9282E093E09F938F938E0151
:10089C000F5F1F4F1F930F930E94F608C8010E9411
:1008AC0057059FEF2DE339E4915020403040E1F79C
:1008BC0000C0000043E0C701B6010E94E2080FB679
:1008CC00F894DEBF0FBECDBF881105C08AE093E05F
:1008DC000E94570504C081E193E00E94570580E017
:1008EC0090E0A0960FB6F894DEBF0FBECDBFDF919F
:1008FC00CF911F910F91FF90EF90DF90CF90BF9011
:08090C00AF909F908F900895B9
:10091400CF93DF93DC01F90168387105F1F05CF4E1
:100924006138710561F164387105A1F160387105B0
:1009340009F051C02FC0603C710509F441C0603F0B
:100944007105F1F1603A710509F045C0C081D181AA
:10095400CE0102969183808325C0C081D181CE01CE
:10096400029691838083452B39F04881042E000C34
:10097400550B660B770B1CC0488150E029C0C08121
:10098400D181CE01049691838083488159816A8103
:100994007B810EC0C081D181CE0102969183808378
:1009A400452BA1F048815981052E000C660B770B6D
:1009B4004D935D936D937C93139781E090E00DC00C
:1009C400C081D181CE01029691838083488159816F
:1009D40060E070E0EDCF80E090E0DF91CF9108958A
:1009E400A0E0B0E0E8EFF4E00C948108DC01280119
:1009F4001696AD90BC901797F7018081918112965D
:100A0400ED91FC9113971896CD91DC91199721974C
:100A1400F7FF02C0E1E0F0E0CA0DDB1D18826901B6
:100A2400A1E0B0E08F01021B130B4C01F2E08F2216
:100A34009924052C000C66087708CE018A199B09B5
:100A4400CA15DB0519F1411551056105710589F0D8
:100A5400CB01BA01A30192010E940308CA01A62F87
:100A6400B72F605D6A9341E0C41AD108A901BC01A3
:100A7400E4CF98012C0D3D1D121613064CF31C14E3
:100A84001D0434F48114910419F702C080E090E04D
:100A9400AB2B31F4F701208131812F7E3183208308
:0A0AA400CDB7DEB7E0E10C949D0829
:100AAE000F931F93CF93DF938C018FEF80930A01E7
:100ABE0084B1806E84B984B1806784B98FE295E782
:100ACE000197F1F700C00000CBE0D1E080E388830E
:100ADE000E9424098FE097E20197F1F700C0000011
:100AEE000E9424098FEC97E00197F1F700C00000F7
:100AFE000E9424098FEC97E00197F1F700C00000E7
:100B0E002D9888E388830E94240992E69A95F1F73E
:100B1E0000C02D988EE088830E94240982E68A9573
:100B2E00F1F700C02D9886E088830E94240992E692
:100B3E009A95F1F700C02D9881E088830E942409D0
:100B4E008FE99FE00197F1F700C00000C8010E94F5
:0C0B5E004508DF91CF911F910F91089581
:100B6A00A2E0B0E0EBEBF5E00C9483084C016B01DA
:100B7A00FB012281338164807580808191819A830F
:100B8A008983A680B78037FD03C08D7F9A838983C6
:100B9A00FA014081518162817381CE0101967C0103
:100BAA0008E010E09301C6010E94F204298124FFA3
:100BBA0006C00197F501E80FF91F20E32083298178
:100BCA0023FF06C00197F501E80FF91F20E22083F1
:100BDA0009811A81F6014085518541505109481B06
:100BEA00590BB501680F791F9301C4010E941707B9
:100BFA009C01F4018081918190FF06C0F6018281F7
:100C0A009381821793070CF4C9012296EEE00C94A3
:020C1A009F0831
:100C1C000F931F93CF93DF93DB01109719F48FEF92
:100C2C009FEF3DC02D913C91119730FF25C016963A
:100C3C004D915C91179714962D913C9115974217F5
:100C4C00530778F41296ED91FC91139780831296CA
:100C5C002D913C9113972F5F3F4F13963C932E93FE
:100C6C00129716962D913C9117972F5F3F4F179621
:100C7C003C932E93169713C01C96ED91FC911D97E7
:100C8C00309769F2EB01092F182F1995892B39F63A
:100C9C008E819F8101969F838E83812F902FDF9170
:080CAC00CF911F910F910895F3
:100CB400A2E0B0E0E0E6F6E00C9483085C016B018E
:100CC400FB012281338184809580808191819A8384
:100CD40089836680778037FD03C08D7F9A838983FB
:100CE400FA014081518162817381CE0101967C01B8
:100CF4000AE010E09401C6010E94F20409811A81FD
:100D0400F6014085518541505109481B590BB301E7
:100D1400680F791F9401C5010E9417079C01F50112
:100D24008081918190FF06C0F601828193818217B0
:0E0D340093070CF4C9012296EEE00C949F0880
:100D4200A2E8B0E0E7EAF6E00C9485085C014A010B
:100D5200CF57DF4F79836883C158D040C12CD12C43
:100D6200CF57DF4FE881F981C158D0408081882375
:100D7200E9F07401860120E830E0AE014F5F5F4F79
:100D8200BE016F577F4FC5010E94C0008C0D9D1D93
:100D92008C159D054CF48FE490E0909301028093B2
:100DA20000028FEF9FEF03C06C01DACFC601CE576E
:080DB200DF4FECE00C94A108F6
:100DBA00A0E1B0E0E3EEF6E00C948B08FB01BA0187
:100DCA00AE014F5F5F4F7A0140E1D7011D924A950C
:100DDA00E9F742E051E05A8349839C838B83F7FF0A
:100DEA0009C08FE490E090930102809300028FEF94
:100DFA009FEF14C0A9018C013197FE83ED83C701CF
:100E0A000E94B6084F8158852D813E8142175307AB
:100E1A0008F49A01F801E20FF31F10826096E6E0E7
:040E2A000C94A70875
:100E2E00A0E0B0E0EDE1F7E00C9485086C015B0109
:100E3E007A01E901480181E08822992400FD03C06E
:100E4E004217530750F0A701B501C6010E94620870
:100E5E00EC16FD0610F0C70117C08E010E191F0902
:100E6E000115110541F0B60180E290E00E940E06D8
:100E7E0001501109F5CF8114910429F4A701B50190
:100E8E00C6010E946208CE01CDB7DEB7ECE00C942D
:020E9E00A108A9
:100EA0000F931F93CF93DF9380E80E94DC078AE0C3
:100EB0000E942F090E945B098FE19EE40197F1F7E0
:100EC00000C0000081E80E94DC070E943A09082F58
:100ED0000E943A09C82F0E943A09D82F0E9445095A
:100EE000182F0E945B098C2F90E0A0E0B0E0DC019D
:100EF00099278827B02B812BBC01CD017D2BDF9159
:080F0000CF911F910F9108959C
:100F0800DC01ED91FC91119780818A3221F080E01B
:100F180090E03AE00EC03196ED93FC93DB01ED9141
:100F2800FC911197CF0102968D939C9380819181BA
:100F38000895ED91FC911197208120532A3068F48F
:100F4800389FA001399F500D1124CA01820F911DAD
:0C0F580031961196FC93EE93ECCF0895B7
:100F6400A0E0B0E0E8EBF7E00C9487087C01FB011B
:100F7400EA01C901A280B380C480D58000811181B7
:100F8400209711F4C2E3D3E0009719F4CE010E9434
:100F94001609B7FC04C0A816B90608F4C5019601E1
:100FA400AC01BE01C7010E941707CDB7DEB7EAE066
:040FB4000C94A308EE
:100FB80094EA9093BC00ECEBF0E090819923ECF775
:100FC8009091B900987F983011F09031A1F48093F6
:100FD800BB0084E88093BC00ECEBF0E080818823C0
:100FE800ECF79091B900987F983139F081E090340E
:0E0FF80029F480E0089581E0089580E00895D6
:10100600A1E21A2EAA1BBB1BFD010DC0AA1FBB1F06
:10101600EE1FFF1FA217B307E407F50720F0A21B78
:10102600B30BE40BF50B661F771F881F991F1A94E5
:1010360069F760957095809590959B01AC01BD010F
:04104600CF01089539
:10104A00CF93DF93EC0190E0E92FF0E0EE0FFF1F62
:10105A00E45EFC4F8081811102C081810EC0A881AB
:10106A00B9812C91821305C091811196B983A88305
:10107A0001C09F5F9B3040F3892FDF91CF91089584
:10108A000F931F93CF93DF93FC012081222381F0DA
:10109A00EC010BE011E02D9A8991F80180830E94FE
:1010AA002409FDE6FA95F1F7000088818111F3CF52
:0A10BA00DF91CF911F910F9108956F
:1010C400A0E0B0E0E8E6F8E00C9489086C01EB01DC
:1010D4008A017B01E40EF51ECE15DF0541F08991EE
:1010E400B601082E000C990B0E940E06F5CFC8011C
:0A10F400CDB7DEB7E8E00C94A508C4
:1010FE002F923F924F925F926F927F928F929F921A
:10110E00AF92BF92CF92DF92EF92FF920F931F9307
:10111E00CF93DF93CDB7DEB7CA1BDB0B0FB6F894B8
:08112E00DEBF0FBECDBF199416
:101136002A88398848885F846E847D848C849B8461
:10114600AA84B984C884DF80EE80FD800C811B816F
:10115600AA81B981CE0FD11D0FB6F894DEBF0FBE9E
:06116600CDBFED0108956C
:10116C00A2E0B0E0ECEBF8E00C948D088C015A8313
:10117C004983AE014F5F5F4F0E94A106F8012081A9
:10118C0024FF02C08FEF9FEF2296E4E00C94A90895
:10119C006115710579F0DC01680F791F80E0ED9124
:1011AC008E27E82FF0E0EE5FFD4F8081A617B70782
:0811BC00B1F7089580E00895E9
:1011C400CF93DF9300D0CDB7DEB789837A836B8367
:1011D400642F70E0CE0101960E94CE080F900F900C
:0811E4000F90DF91CF910895F7
:1011EC00A0E0B0E0ECEFF8E00C948F08AE01465FA5
:1011FC005F4F688579858E819F810E947509E2E039
:04120C000C94AB088B
:1012100082E18093B8001092B9008FEF8093BB00F9
:0C12200084E08093BC0080E090E0089522
:10122C00FC01AF014F5F5F4F2081222311F0FA01C7
:0C123C00F8CF9F01281B390BC901089551
:101248002F9A85E38A95F1F700002F9885E38A9510
:06125800F1F7000008950B
:10125E008093BB0084E88093BC00ECEBF0E08081CF
:06126E008823ECF708954F
:1012740084EC8093BC00ECEBF0E080818823ECF7F5
:061284008091BB000895FB
:10128A0086E88093BC00ECEBF0E080818823ECF7E1
:06129A008091BB000895E5
:1012A000EC010E9481090E948009CE010E948209FE
:0612B000CE010E947E0940
:1012B60084E98093BC00ECEBF0E0808184FDFDCFF7
:0212C600089589
:1012C8009C01215631092A31310510F48F7599276F
:0212D800089577
:1012DA009C01215431092A31310508F480620895AC
:0E12EA009A01AB016FEF7FE70E94DD060895C9
:0412F8000C94000052
:0412FC000E94BE008E
:0213000008954E
:0213020008954C
:0213040008954A
:1013060000316253C4F5A697B988DBEA7D4C1F2EDF
:101316004372211087B6E5D4FACB98A93E0F5C6DCF
:1013260086B7E4D5427320113F0E5D6CFBCA99A8BF
:10133600C5F4A796013063527C4D1E2FB889DAEBAF
:101346003D0C5F6EF9C89BAA84B5E6D7407122139F
:101356007E4F1C2DBA8BD8E9C7F6A594033261508F
:10136600BB8AD9E87F4E1D2C02336051C6F7A4957F
:10137600F8C99AAB3C0D5E6F4170231285B4E7D66F
:101386007A4B1829BE8FDCEDC3F2A190073665545F
:1013960039085B6AFDCC9FAE80B1E2D3447526174F
:1013A600FCCD9EAF38095A6B4574271681B0E3D23F
:1013B600BF8EDDEC7B4A192806376455C2F3A0912F
:1013C6004776251483B2E1D0FECF9CAD3A0B58691F
:1013D60004356657C0F1A293BD8CDFEE79481B2A0F
:1013E600C1F0A3920534675678491A2BBC8DDEEFFF
:1013F60082B3E0D1467724153B0A5968FFCE9DACEF
:10140600534E3A20256C7500435243204F4B004300
:0A1416005243206661696C656400B2
:1014200068076C094C836A9074A07AC00080688851
:0614300000846C820081C3
:07143600286E756C6C2900A3
:06143D00286E696C290015
:00000001FF
