:100000000C9492000C94F00C0C94F00C0C94F00CEA
:100010000C94F00C0C94F00C0C94F00C0C94F00C70
:100020000C94F00C0C94F00C0C94F00C0C94F00C60
:100030000C94F00C0C94F00C0C94F00C0C94F00C50
:100040000C94F00C0C94F00C0C94F00C0C94F00C40
:100050000C94F00C0C94F00C0C94F00C0C94F00C30
:100060000C94F00C0C94F00C0C94F00C0C94F00C20
:100070000C94F00C0C94F00C0C94F00C0C94F00C10
:100080000C94F00C0C94F00C0C94F00C0C94F00C00
:100090000C94F00C0C94F00C0C94F00C0C94F00CF0
:1000A0000C94F00C0C94F00C0C94F00C0C94F00CE0
:1000B0000C94F00C0C94F00C0C94F00C0C94F00CD0
:1000C0000C94F00C0C94F00C0C94F00C0C94F00CC0
:1000D0000C94F00C0C94F00C0C94F00C0C94F00CB0
:1000E0000C94F00C0200020280020203A90019EE37
:1000F0000C942B0C0C9474050C9477090C94B30994
:100100000C94ED090C94BA0A0C944E080C948E07CA
:100110000C9486040C94F3080C94AB0B0C94C6005E
:100120000C94FF0B11241FBECFEFD1E2DEBFCDBF79
:1001300000E00CBFE4EEF0E040E019C0B791A791F9
:1001400037912791079107FD0EC097918791EF0195
:10015000F92FE82F0BBF07900D92A217B307D9F71D
:10016000FE011BBE04C01D92A217B307E1F7E03FDA
:10017000F40721F70E94BE020C94900CF894FFCF74
:10018000AEE0B0E0E6ECF0E00C94C50B4C016B0186
:100190001A8219828FEF9FEF9C838B831E821D82B0
:1001A00058874F833A872987A12CB12CD6016D90AF
:1001B0007C90F301EA0DFB1D808181110FC0D601F7
:1001C000ED93FC938081853209F0D3C13F01BFEFED
:1001D0006B1A7B0AF6017182608219C0853279F34D
:1001E000B401082E000C990B0E94A1084FEFA41A2D
:1001F000B40ADCCF8C32ACF08D32F9F489819A816B
:1002000081609A8389833196D601ED93FC93D60160
:10021000ED91FC9180818B3269F789819A818460AC
:10022000F0CF803221F489819A818860EACF8332CD
:1002300051F489819A818061E4CF803321F48981EE
:100240009A818260DECFB701C6010E94860A9E8332
:100250008D8397FF0BC029813A81B1E02B273A8328
:1002600029839195819591099E838D8389819A81B6
:1002700080FF03C08D7F9A838983D601ED91FC9125
:10028000119780818E3249F43196ED93FC93B7013A
:10029000C6010E94860A9C838B83C6010E94490B7B
:1002A000582ED601ED91FC918081082E000C990BFF
:1002B0000E94AD0C893609F443C084F4833609F4F6
:1002C00002C134F4853209F427C18136E1F030C12E
:1002D0008436B1F188360CF4D9C02AC1803709F4CC
:1002E0009AC03CF48E3609F4BCC08F3609F461C064
:1002F0001FC1853709F440C0883709F476C08337B9
:1003000009F016C1F3C0652D70E0A701CE010B9670
:100310000E940000892B09F426C1D601ED91FC91C1
:100320001197CF0101968D939C932081AE01455F7B
:100330005F4FBE016F5F7F4FC4010E94000010C17C
:10034000652D70E0970141E050E0CE010B960E94D0
:10035000B906892B09F407C1F601808191810196C4
:1003600091838083AE01455F5F4FBE016F5F7F4F1A
:10037000C4010E946E05F4C0652D70E0970140E055
:1003800050E0CE010B960E94B906892B09F4EBC010
:10039000D6018D919C91119701968D939C93AE01FE
:1003A000455F5F4FBE016F5F7F4FC4010E94ED0844
:1003B000D7C0652D70E0970140E050E0CE010B966C
:1003C0000E94B906892B09F4CEC0F6018081918183
:1003D000019691838083AE01455F5F4FBE016F5FE1
:1003E0007F4FC4010E944808BBC0652D70E0970193
:1003F00040E050E0CE010B960E94B906892B09F42B
:10040000B2C0D601ED91FC911197CF0101968D9369
:100410009C9320811CC0970140E050E060EF70E0A9
:10042000CE010B960E94B906892B09F49CC0F601F7
:10043000808191810196918380838B859C85892B16
:1004400029F420E030E043EA53E084C028E7AE011D
:10045000455F5F4FBE016F5F7F4FC4010E94800404
:100460007FC0A501400F511F652D70E09701CE019F
:100470000B960E940000892B09F475C0D6018D915E
:100480009C91119701968D939C9373C0652D70E09C
:10049000A701CE010B960E940000892B09F463C0CE
:1004A000D601ED91FC911197CF0101968D939C930C
:1004B0002081AE01455F5F4FBE016F5F7F4FC4017A
:1004C0000E9400004DC0B0E85B124DC0F601808173
:1004D0009181019691838083D701ED91FC911197D1
:1004E000CF0102968D939C93808120C0B0E85B126F
:1004F0003AC0F60180819181019691838083D70172
:10050000ED91FC911197CF0102968D939C934081C0
:10051000518120E030E01EC0B0E85B1224C0F6013B
:10052000208131812F5F3F4F318320838B870DC026
:1005300085E28B87D6016D927C921A8219821E8287
:100540001D828FEF9FEF9C838B8321E030E0AE0113
:10055000455F5F4FBE016F5F7F4FC4010E94B40AC9
:100560008A0D9B1D07C0F6018081918101969183C0
:0C0570008083C5012E96EFE00C94E10B97
:10057C004F925F926F927F928F929F92AF92BF92A7
:10058C00CF92DF92EF92FF920F931F93CF93DF9353
:10059C00CDB7DEB7A4970FB6F894DEBF0FBECDBFB4
:1005AC000E94480C2FEF30E782E021503040804011
:1005BC00E1F700C000000E94200A4B015C01C72E2D
:1005CC00D82EE92EFF24FF92EF92DF92CF9282E099
:1005DC0093E09F938F938E010F5F1F4F1F930F9389
:1005EC000E94250CC8010E94ED079FEF2DE339E412
:1005FC00915020403040E1F700C0000043E0C701BB
:10060C00B6010E94690B0FB6F894DEBF0FBECDBFCA
:10061C00881105C08AE093E00E94ED0704C081E1D7
:10062C0093E00E94ED073FEF83ED90E33150804063
:10063C009040E1F700C0000080E80E94DE0A84E5EB
:10064C000E946F0C0E949B0C2FEF36E781E021502B
:10065C0030408040E1F700C0000080E80E94DE0AD4
:10066C0080E00E946F0C0E949B0C9FEF29E638E102
:10067C00915020403040E1F700C0000081E80E941A
:10068C00DE0A0E947A0C882E0E947A0C982E0E9408
:10069C007A0C682E0E947A0CA82E0E947A0CB82E26
:1006AC000E94850C782E0E949B0C692D70E07B01BA
:1006BC00F8286B2D70E08B011A29FF92EF928CE1D8
:1006CC0093E09F938F93CE0101966C019F938F9330
:1006DC000E94250CC6010E94ED079FEF23ED30E32D
:1006EC00915020403040E1F700C000001F930F9361
:1006FC0086E293E09F938F93DF92CF920E94250C1A
:10070C00C6010E94ED078FEF93ED20E381509040DE
:10071C002040E1F700C0000089A29AA262E070E0DC
:10072C00CE0181960E94110C0FB6F894DEBF0FBE5D
:10073C00CDBF681205C080E393E00E94ED0704C0B2
:10074C008DE393E00E94ED073FEF83ED90E3315092
:10075C0080409040E1F700C00000ABA2BCA262E078
:10076C0070E0CE0183960E94110C781205C08CE4C7
:10077C0093E00E94ED0704C088E593E00E94ED072A
:10078C002FEF33ED80E3215030408040E1F700C083
:10079C000000B70180E090E00E94340920E030E0D6
:1007AC0045E253E40E94E90C20E03FEF4FE757E4A9
:1007BC000E94E50C20E030E040E252E40E94B50CCF
:1007CC006B017C01B80180E090E00E94340920E0CC
:1007DC0030E048EC52E40E94E90C20E03FEF4FE798
:1007EC0057E40E94E50C4B015C01C701B6010E9465
:1007FC00BC0C2B013C01072E000C880B990B0E94A2
:10080C0036099B01AC01C701B6010E94B50C20E072
:10081C0030E048EC52E40E94E90C0E94BC0C7F933F
:10082C006F935F924F9286E693E09F938F938E0126
:10083C000F5F1F4F1F930F930E94250CC8010E943E
:10084C00ED079FEF23ED30E3915020403040E1F76E
:10085C0000C00000C501B4010E94BC0C6B017C01FE
:10086C00072E000C880B990B0E9436099B01AC01DA
:10087C00C501B4010E94B50C20E030E048EC52E414
:10088C000E94E90C0E94BC0C7F936F93DF92CF9275
:10089C0086E793E09F938F931F930F930E94250CF1
:1008AC00C8010E94ED078FEF93ED20E3815090403B
:1008BC002040E1F700C000000FB6F894DEBF0FBE79
:1008CC00CDBF80E090E0A4960FB6F894DEBF0FBECB
:1008DC00CDBFDF91CF911F910F91FF90EF90DF90E3
:1008EC00CF90BF90AF909F908F907F906F905F90C4
:0408FC004F9008957C
:10090000AFE0B0E0E6E8F4E00C94C20B1C016B0130
:100910005A8349832B83FB01828193818480958054
:1009200000811181A680B78097FD02C00D7F02C0B3
:1009300081E090E0E981FA8140805180628073809B
:100940009801207133273D832C83740104FF08C074
:10095000411451046104710419F032E0E31AF10802
:10096000F801E870FF27FF83EE8303FF03C0F1E087
:10097000EF1AF108F6010084F185E02D3197FF8729
:10098000EE87EA0DFB1D10829C012E193F09398765
:100990002887C801827099279B878A87EB818E2FD1
:1009A000EE0F990B9C01215431093D872C872E8530
:1009B0003F852230310530F48C819D81892B09F0EF
:1009C00042C05CC0411451046104710461F18E8520
:1009D0009F8501979F878E87C2018F7099278A30E4
:1009E000910514F4C09602C0895A9F4FEC85FD858D
:1009F0007A9748F49C012062215631092A31310549
:100A000010F40E94A40CEE85FF85EA0DFB1D808387
:100A1000F1E0EF1AF10884E07694679457944794D4
:100A20008A95D1F7C4CF888599858E0D9F1D18169C
:100A300019066CF21E141F040CF0BECFEA85FB856C
:100A4000EF2B29F6B9CFE981FA8180819181A281CA
:100A5000B381892B8A2B8B2B89F0EE85FF85EA0DDC
:100A6000FB1D31972B8120838E859F8502979F8761
:100A70008E87FC01EA0DFB1D80E38083EE81FF8100
:100A8000EF2B59F02E853F85215031093F872E8766
:100A9000F901EA0DFB1D80E28083F6014085518556
:100AA000415051092E853F85421B530BB9016A0DF8
:100AB0007B1D9401C1010E94E7099C01F101808125
:100AC000918190FF06C0F60182819381821793077E
:0C0AD0000CF4C9012F96E2E10C94DE0B3F
:100ADC00A2E0B0E0E4E7F5E00C94C20B3C016B0142
:100AEC00FB0122813381A480B580808191819A831E
:100AFC00898386809780FA012080318042805380E0
:100B0C00B201A10157FE07C044275527BA0142196B
:100B1C0053096409750937FD03C08D7F9A83898356
:100B2C00950157FC05C0898182FD02C083FF02C07C
:100B3C0021503109CE0101967C010AE010E0C6017A
:100B4C000E94880757FC03C0298122FF0AC0019725
:100B5C00F401E80FF91F57FC02C02BE209C02DE28B
:100B6C0007C023FF06C00197F401E80FF91F20E22C
:100B7C00208309811A81F601408551854150510924
:100B8C00481B590BB401680F791F9501C3010E94D2
:100B9C00E7099C01F3018081918190FF06C0F60169
:100BAC0082819381821793070CF4C9012296E2E1AA
:040BBC000C94DE0BAC
:100BC00010C00E94CA0C58F00E94C30C40F029F4D7
:100BD0005F3F29F00C94DF0C51110C94D20C0C9453
:100BE000ED0C0E94050B68F39923B1F3552391F3A3
:100BF000951B550BBB27AA2762177307840738F08C
:100C00009F5F5F4F220F331F441FAA1FA9F335D0E8
:100C10000E2E3AF0E0E832D091505040E695001C9C
:100C2000CAF72BD0FE2F29D0660F771F881FBB1F56
:100C3000261737074807AB07B0E809F0BB0B802D34
:100C4000BF01FF2793585F4F3AF09E3F510578F060
:100C50000C94DF0C0C94D20C5F3FE4F3983ED4F379
:100C6000869577956795B795F7959F5FC9F7880F34
:100C7000911D9695879597F90895E1E0660F771F86
:100C8000881FBB1F621773078407BA0720F0621B17
:0E0C9000730B840BBA0BEE1F88F7E0950895E6
:100C9E000FC00E94C30C38F00E94CA0C20F095239E
:100CAE0011F00C94DF0C0C94ED0C11240C94D20C5E
:100CBE000E94050B70F3959FC1F3950F50E0551FE1
:100CCE00629FF001729FBB27F00DB11D639FAA2793
:100CDE00F00DB11DAA1F649F6627B00DA11D661FE2
:100CEE00829F2227B00DA11D621F739FB00DA11D03
:100CFE00621F839FA00D611D221F749F3327A00DBD
:100D0E00611D231F849F600D211D822F762F6A2F58
:100D1E0011249F5750409AF0F1F088234AF0EE0FBD
:100D2E00FF1FBB1F661F771F881F91505040A9F7EA
:100D3E009E3F510580F00C94DF0C0C94D20C5F3F5B
:100D4E00E4F3983ED4F3869577956795B795F79526
:100D5E00E7959F5FC1F7FE2B880F911D969587959E
:040D6E0097F9089554
:100D7200CF93DF93DC01F90168387105F1F05CF47F
:100D82006138710561F164387105A1F1603871054E
:100D920009F051C02FC0603C710509F441C0603FA9
:100DA2007105F1F1603A710509F045C0C081D18148
:100DB200CE0102969183808325C0C081D181CE016C
:100DC200029691838083452B39F04881042E000CD2
:100DD200550B660B770B1CC0488150E029C0C081BF
:100DE200D181CE01049691838083488159816A81A1
:100DF2007B810EC0C081D181CE0102969183808316
:100E0200452BA1F048815981052E000C660B770B0A
:100E12004D935D936D937C93139781E090E00DC0A9
:100E2200C081D181CE01029691838083488159810C
:100E320060E070E0EDCF80E090E0DF91CF91089527
:100E420011C00E94C30C38F00E94CA0C20F039F481
:100E52009F3F19F426F40C94ED0C0EF4E095E7FB99
:100E62000C94DF0CE92F0E94050B58F3BA176207A6
:100E720073078407950720F079F4A6F50C94D10C3A
:100E82000EF4E0950B2EBA2FA02D0B01B9019001A3
:100E92000C01CA01A0011124FF27591B99F0593FE7
:100EA20050F4503E68F11A16F040A22F232F342F2F
:100EB2004427585FF3CF469537952795A795F0407D
:100EC2005395C9F77EF41F16BA0B620B730B840B92
:100ED200BAF09150A1F0FF0FBB1F661F771F881F4A
:100EE200C2F70EC0BA0F621F731F841F48F48795A2
:100EF20077956795B795F7959E3F08F0B0CF939594
:0E0F0200880F08F09927EE0F979587950895B0
:100F1000A0E0B0E0EEE8F7E00C94C40BDC0128019F
:100F20001696AD90BC901797F7018081918112962B
:100F3000ED91FC9113971896CD91DC91199721971B
:100F4000F7FF02C0E1E0F0E0CA0DDB1D1882690185
:100F5000A1E0B0E08F01021B130B4C01F2E08F22E5
:100F60009924052C000C66087708CE018A199B0984
:100F7000CA15DB0519F1411551056105710589F0A7
:100F8000CB01BA01A30192010E94270BCA01A62F2F
:100F9000B72F605D6A9341E0C41AD108A901BC0172
:100FA000E4CF98012C0D3D1D121613064CF31C14B2
:100FB0001D0434F48114910419F702C080E090E01C
:100FC000AB2B31F4F701208131812F7E31832083D7
:0A0FD000CDB7DEB7E0E10C94E00BB2
:100FDA000F931F93CF93DF938C018FEF80930A01B6
:100FEA0084B1806E84B98FE295E70197F1F700C06A
:100FFA000000CBE0D1E080E388830E94640C8FE09C
:10100A0097E20197F1F700C000000E94640C8FEC90
:10101A0097E00197F1F700C000000E94640C8FEC82
:10102A0097E00197F1F700C000002D9888E38883C4
:10103A000E94640C92E69A95F1F700C02D988EE012
:10104A0088830E94640C82E68A95F1F700C02D9885
:10105A0086E088830E94640C92E69A95F1F700C0B4
:10106A002D9881E088830E94640C8FE99FE00197A4
:10107A00F1F700C00000C8010E94880BDF91CF91F0
:06108A001F910F91089573
:10109000A2E0B0E0EEE4F8E00C94C60B4C016B016A
:1010A000FB012281338164807580808191819A83E4
:1010B0008983A680B78037FD03C08D7F9A8389839B
:1010C000FA014081518162817381CE0101967C01D8
:1010D00008E010E09301C6010E948807298124FFDF
:1010E00006C00197F501E80FF91F20E3208329814D
:1010F00023FF06C00197F501E80FF91F20E22083C6
:1011000009811A81F6014085518541505109481BDA
:10111000590BB501680F791F9301C4010E94E709BB
:101120009C01F4018081918190FF06C0F6018281CB
:101130009381821793070CF4C9012296EEE00C9478
:02114000E20BC0
:101142000F931F93CF93DF93DB01109719F48FEF67
:101152009FEF3DC02D913C91119730FF25C016960F
:101162004D915C91179714962D913C9115974217CA
:10117200530778F41296ED91FC911397808312969F
:101182002D913C9113972F5F3F4F13963C932E93D3
:10119200129716962D913C9117972F5F3F4F1796F6
:1011A2003C932E93169713C01C96ED91FC911D97BC
:1011B200309769F2EB01092F182F1995892B39F60F
:1011C2008E819F8101969F838E83812F902FDF9145
:0811D200CF911F910F910895C8
:1011DA00A2E0B0E0E3EFF8E00C94C60B5C016B010F
:1011EA00FB012281338184809580808191819A8359
:1011FA0089836680778037FD03C08D7F9A838983D0
:10120A00FA014081518162817381CE0101967C018C
:10121A000AE010E09401C6010E94880709811A8138
:10122A00F6014085518541505109481B590BB301BC
:10123A00680F791F9401C5010E94E7099C01F50115
:10124A008081918190FF06C0F60182819381821785
:0E125A0093070CF4C9012296EEE00C94E20B0F
:10126800E89409C097FB3EF4909580957095619538
:101278007F4F8F4F9F4F9923A9F0F92F96E9BB27EE
:101288009395F695879577956795B795F111F8CF6A
:10129800FAF4BB0F11F460FF1BC06F5F7F4F8F4FD5
:1012A8009F4F16C0882311F096E911C0772321F0CB
:1012B8009EE8872F762F05C0662371F096E8862F63
:1012C80070E060E02AF09A95660F771F881FDAF7BA
:0A12D800880F9695879597F9089501
:1012E200A2E8B0E0E7E7F9E00C94C80B5C014A0120
:1012F200CF57DF4F79836883C158D040C12CD12C9E
:10130200CF57DF4FE881F981C158D04080818823CF
:10131200E9F07401860120E830E0AE014F5F5F4FD3
:10132200BE016F577F4FC5010E94C0008C0D9D1DED
:101332008C159D054CF48FE490E09093010280930C
:1013420000028FEF9FEF03C06C01DACFC601CE57C8
:08135200DF4FECE00C94E40B0A
:10135A00A0E1B0E0E3EBF9E00C94CE0BFB01BA019B
:10136A00AE014F5F5F4F7A0140E1D7011D924A9566
:10137A00E9F742E051E05A8349839C838B83F7FF64
:10138A0009C08FE490E090930102809300028FEFEE
:10139A009FEF14C0A9018C013197FE83ED83C70129
:1013AA000E94F90B4F8158852D813E8142175307C0
:1013BA0008F49A01F801E20FF31F10826096E6E042
:0413CA000C94EA0B8A
:1013CE00A0E0B0E0EDEEF9E00C94C80B6C015B010F
:1013DE007A01E901480181E08822992400FD03C0C9
:1013EE004217530750F0A701B501C6010E94A50B85
:1013FE00EC16FD0610F0C70117C08E010E191F095D
:10140E000115110541F0B60180E290E00E94A1089D
:10141E0001501109F5CF8114910429F4A701B501EA
:10142E00C6010E94A50BCE01CDB7DEB7ECE00C9441
:02143E00E40BBD
:101440000F931F93CF93DF9380E80E94DE0A8AE018
:101450000E946F0C0E949B0C2FEF86E791E02150B9
:1014600080409040E1F700C0000081E80E94DE0A61
:101470000E947A0C082F0E947A0CC82F0E947A0CC6
:10148000D82F0E94850C182F0E949B0C8C2F90E067
:10149000A0E0B0E0DC0199278827B02B812BBC01AC
:0E14A000CD017D2BDF91CF911F910F9108950B
:1014AE000E940D0B88F09F5798F0B92F9927B751CE
:1014BE00B0F0E1F0660F771F881F991F1AF0BA95EA
:1014CE00C9F714C0B13091F00E94D10CB1E008956B
:1014DE000C94D10C672F782F8827B85F39F0B93F5D
:1014EE00CCF3869577956795B395D9F73EF490959D
:0E14FE008095709561957F4F8F4F9F4F089599
:10150C00DC01ED91FC91119780818A3221F080E011
:10151C0090E03AE00EC03196ED93FC93DB01ED9137
:10152C00FC911197CF0102968D939C9380819181B0
:10153C000895ED91FC911197208120532A3068F485
:10154C00389FA001399F500D1124CA01820F911DA3
:0C155C0031961196FC93EE93ECCF0895AD
:10156800A0E0B0E0EAEBFAE00C94CA0B7C01FB01C6
:10157800EA01C901A280B380C480D58000811181AD
:10158800209711F4CCE9D3E0009719F4CE010E941A
:10159800560CB7FC04C0A816B90608F4C501960194
:1015A800AC01BE01C7010E94E709CDB7DEB7EAE08A
:0415B8000C94E60B9E
:1015BC0094EA9093BC00ECEBF0E090819923ECF76B
:1015CC009091B900987F983011F09031A1F48093EC
:1015DC00BB0084E88093BC00ECEBF0E080818823B6
:1015EC00ECF79091B900987F983139F081E0903404
:0E15FC0029F480E0089581E0089580E00895CC
:10160A0057FD9058440F551F59F05F3F71F04795A9
:10161A00880F97FB991F61F09F3F79F0879508958E
:10162A00121613061406551FF2CF4695F1DF08C0AD
:10163A00161617061806991FF1CF869571056105CA
:04164A000894089563
:10164E00A1E21A2EAA1BBB1BFD010DC0AA1FBB1FB8
:10165E00EE1FFF1FA217B307E407F50720F0A21B2A
:10166E00B30BE40BF50B661F771F881F991F1A9497
:10167E0069F760957095809590959B01AC01BD01C1
:04168E00CF010895EB
:10169200CF93DF93EC0190E0E92FF0E0EE0FFF1F14
:1016A200EA57FC4F8081811102C081810EC0A8815E
:1016B200B9812C91821305C091811196B983A883B7
:1016C20001C09F5F9B3040F3892FDF91CF91089536
:1016D200CF93DF9300D00F92CDB7DEB799838A8381
:1016E2007B836C83642F70E084E090E0861B970B11
:1016F20021E030E02C0F3D1F820F931F0E94110C3E
:0E1702000F900F900F900F90DF91CF910895F0
:101710000F931F93CF93DF93FC012081222381F04D
:10172000EC010BE011E02D9A8991F80180830E9471
:10173000640CFDE6FA95F1F7000088818111F3CF82
:0A174000DF91CF911F910F910895E2
:10174A00A0E0B0E0EBEAFBE00C94CC0B6C01EB01FF
:10175A008A017B01E40EF51ECE15DF0541F0899161
:10176A00B601082E000C990B0E94A108F5CFC801FA
:0A177A00CDB7DEB7E8E00C94E80BF1
:101784002F923F924F925F926F927F928F929F928D
:10179400AF92BF92CF92DF92EF92FF920F931F937B
:1017A400CF93DF93CDB7DEB7CA1BDB0B0FB6F8942C
:0817B400DEBF0FBECDBF19948A
:1017BC002A88398848885F846E847D848C849B84D5
:1017CC00AA84B984C884DF80EE80FD800C811B81E3
:1017DC00AA81B981CE0FD11D0FB6F894DEBF0FBE12
:0617EC00CDBFED010895E0
:1017F200A2E0B0E0EFEFFBE00C94D00B8C015A8337
:101802004983AE014F5F5F4F0E947109F801208149
:1018120024FF02C08FEF9FEF2296E4E00C94EC0BC2
:101822006115710579F0DC01680F791F80E0ED9197
:101832008E27E82FF0E0EE5FFD4F8081A617B707F5
:08184200B1F7089580E008955C
:10184A00A0E0B0E0EBE2FCE00C94D20BAE01465F04
:10185A005F4F688579858E819F810E94D80CE2E06E
:04186A000C94EE0BE1
:10186E00092E0394000C11F4882352F0BB0F40F4A0
:10187E00BF2B11F460FF04C06F5F7F4F8F4F9F4FE0
:02188E000895BB
:1018900082E18093B8001092B9008FEF8093BB0073
:0C18A00084E08093BC0080E090E008959C
:1018AC00FC01AF014F5F5F4F2081222311F0FA0141
:0C18BC00F8CF9F01281B390BC9010895CB
:1018C8002F9A85E38A95F1F700002F9885E38A958A
:0618D800F1F70000089585
:1018DE008093BB0084E88093BC00ECEBF0E0808149
:0618EE008823ECF70895C9
:1018F40084EC8093BC00ECEBF0E080818823ECF76F
:061904008091BB00089574
:10190A0086E88093BC00ECEBF0E080818823ECF75A
:06191A008091BB0008955E
:10192000EC010E94F50C0E94F40CCE010E94F60C12
:06193000CE010E94F20C42
:1019360084E98093BC00ECEBF0E0808184FDFDCF70
:02194600089502
:101948009C01215631092A31310510F48F759927E8
:021958000895F0
:10195A009C01215431092A31310508F48062089525
:0E196A005058BB27AA270E9421070C94370C67
:0E1978000E94570A6894B1110C94D20C089585
:0E19860000240A94161617061806090608957E
:0E19940000240A941216130614060506089580
:0E19A200E894BB2766277727CB0197F90895B5
:0E19B0009A01AB016FEF7FE70E94AD09089529
:0C19BE0097F99F6780E870E060E00895F2
:0819CA000E94E0050C94370CAB
:0819D2000E944F060C94370C33
:0619DA009FEF80EC089570
:0419E0000C94000063
:0419E4000E94BE009F
:0219E800089560
:0219EA0008955E
:0219EC0008955C
:1019EE0000316253C4F5A697B988DBEA7D4C1F2EF1
:1019FE004372211087B6E5D4FACB98A93E0F5C6DE1
:101A0E0086B7E4D5427320113F0E5D6CFBCA99A8D0
:101A1E00C5F4A796013063527C4D1E2FB889DAEBC0
:101A2E003D0C5F6EF9C89BAA84B5E6D740712213B0
:101A3E007E4F1C2DBA8BD8E9C7F6A59403326150A0
:101A4E00BB8AD9E87F4E1D2C02336051C6F7A49590
:101A5E00F8C99AAB3C0D5E6F4170231285B4E7D680
:101A6E007A4B1829BE8FDCEDC3F2A1900736655470
:101A7E0039085B6AFDCC9FAE80B1E2D34475261760
:101A8E00FCCD9EAF38095A6B4574271681B0E3D250
:101A9E00BF8EDDEC7B4A192806376455C2F3A09140
:101AAE004776251483B2E1D0FECF9CAD3A0B586930
:101ABE0004356657C0F1A293BD8CDFEE79481B2A20
:101ACE00C1F0A3920534675678491A2BBC8DDEEF10
:101ADE0082B3E0D1467724153B0A5968FFCE9DAC00
:101AEE00534E3A20256C7500435243204F4B004312
:101AFE005243206661696C656400545F5241573AE7
:101B0E0020257500485F5241573A202575005465CF
:101B1E006D70204352433A204F4B0054656D702038
:101B2E004352433A204641494C0048756D2043527A
:101B3E00433A204F4B0048756D204352433A20469E
:101B4E0041494C0054656D703A2025642E25303283
:101B5E006420430048756D3A2025642E253032648A
:041B6E002025250009
:101B720068076C094C836A9074A07AC000806888F8
:061B820000846C8200816A
:071B8800286E756C6C29004A
:061B8F00286E696C2900BC
:00000001FF
