:100000000C9494000C9448110C9448110C944811D1
:100010000C9448110C9448110C9448110C944811FC
:100020000C9448110C9448110C9448110C944811EC
:100030000C9448110C9448110C9448110C944811DC
:100040000C9448110C9448110C9448110C944811CC
:100050000C9448110C9448110C9448110C944811BC
:100060000C9448110C9448110C9448110C944811AC
:100070000C9448110C9448110C9448110C9448119C
:100080000C9448110C9448110C9448110C9448118C
:100090000C9448110C9448110C9448110C9448117C
:1000A0000C9448110C9448110C9448110C9448116C
:1000B0000C9448110C9448110C9448110C9448115C
:1000C0000C9448110C9448110C9448110C9448114C
:1000D0000C9448110C9448110C9448110C9448113C
:1000E0000C9448110200020280020203B300229E17
:1000F0000C945C0B0C94E1070C9442090C941410C2
:100100000C94C8000C94BE0D0C94840D0C946810D3
:100110000C941F0C0C94C00F0C948B0E0C945C046C
:100120000C94480D0C94C40C11241FBECFEFD1E2E7
:10013000DEBFCDBF00E00CBFE4EEF0E040E019C050
:10014000B791A79137912791079107FD0EC097911D
:100150008791EF01F92FE82F0BBF07900D92A2179F
:10016000B307D9F7FE011BBE04C01D92A217B30747
:10017000E1F7E03FF40721F70E9454060C94CD10FC
:04018000F894FFCF21
:10018400A5E2B0E0E8ECF0E00C94D70F9F8F8E8FDF
:100194007F8B6E8B298FFB010190F081E02DFA8714
:1001A400E987FB0102811381248135813B8B2A8BF2
:1001B4008085918599A388A326803780FA01808061
:1001C4009180A280B38020E030E0A901C501B40190
:1001D4000E94331187FF06C0B7FAB094B7F8B09401
:1001E4008DE204C0598552FF54C38BE2F101808330
:1001F4002A893B89215031093C832B8341E050E01B
:10020400598B488B06C08A899B899C838B83198A66
:10021400188AD501C401BF770097E0E8AE07EFE77D
:10022400BE0799F4F98D2F2FFF0F330B2154310999
:1002340088899989820D931D2A31310518F466E95C
:1002440073E019C06AE973E016C00197A048BF477C
:10025400A8F0498D242F440F330B21543109888988
:100264009989820D931D2A31310518F46EE973E0E2
:1002740002C062EA73E00E94F310FAC220E030E0A8
:10028400A901C501B4010E943311C12CD12C20E86D
:10029400E22E2FE3F22E1A821982882309F48CC0ED
:1002A4008D829E82AF82B88620E030E040E251E445
:1002B400C701B6010E9441112B013C01D501C401C3
:1002C40084199509A609B709B7FF07C0B095A09589
:1002D400909581959F4FAF4FBF4F0297A105B105F0
:1002E40044F489819A8101969A8389837301620116
:1002F400DBCFA5019401C301B2010E94331187FD34
:10030400F0CF8D819E81AF81B8858C199D09AE098E
:10031400BF090196A11DB11D0397A105B10508F4FC
:1003240049C01E821D82A5019401C701B6010E9425
:10033400381118160CF040C0E981FA81E43DFE4FF3
:10034400E4F44D815E81452BC1F420E030E040E8C7
:100354005AE5C501B4010E9441114B015C0120E042
:1003640030E040E85AE5C701B6010E9441116B0133
:100374007C0181E090E09E838D8320E030E040E2C8
:1003840051E4C701B6010E943D116B017C01E98172
:10039400FA813197FA83E983D501C4018C199D0947
:1003A400AE09BF090196A11DB11D0397A105B105B1
:1003B40008F0B9CF46015701F98D8F2FFF0F990B24
:1003C4000E94FB10888F17FD03C01E830D8304C099
:1003D40026E030E03E832D83388D373639F4012B07
:1003E40041F441E050E05E834D8303C0288D2F87A4
:1003F40014C089819A818C3F9F4F0CF44FC289812C
:100404009A81ED81FE818E179F070CF047C22981E6
:100414003A8137FF46C236E63F874D815E814F5FA2
:100424005F4F5E834D835F855636B9F489819A8127
:1004340097FF08C0C12CD12C90E8E92E9FE3F92E38
:100444001A821982988D973641F0ED81FE812981B7
:100454003A81E20FF31FFE83ED831C2DDCA2EAA296
:100464000F2D8B869C86AD86BE861D8A1C8A8C8940
:100474009D89ED81FE818E179F07DCF5212F3CA11C
:100484004AA1502F6B857C858D859E850E943D11E8
:100494000E94C9082B013C010E9426116A8FA30106
:1004A4009201612F7CA18AA1902F0E9441112B857A
:1004B4003C854D855E850E9403119B01AC0150581B
:1004C4002B873C874D875E8720E030E040E251E493
:1004D400612F7CA18AA1902F0E943D11162F7CA32D
:1004E4008AA3092F4C895D894F5F5F4F5D8B4C8BCD
:1004F400BECF20E030E040EA50E4612F7CA18AA125
:10050400902F0E9441112B013C019B01AC016B8592
:100514007C858D859E850E94331187FD0DC0A301C6
:1005240092016B857C858D859E850E943311811196
:1005340006C0FA8DF0FD03C0412C512C3201A501F7
:100544009401C301B2010E9404114B015C0120E03B
:1005540030E040E251E4C701B6010E9441116B87CB
:100564007C8B182F092F9B01482F592FC501B401EB
:100574000E94381187FD14C029813A812F5F3F4FB3
:100584003A8329833F85363679F44D815E814F5F06
:100594005F4F5E834D835B855CA38C898DA30BC009
:1005A400CB86DC8A1E2D0F2D9F85953639F0EB8581
:1005B400ECA3FC89FDA3E980FA8006C02B852CA35B
:1005C4003C893DA3E12CF12C48885988C12CD12CBD
:1005D4001D8A1C8A1C861B8649855A8540715527AD
:1005E4005BA34AA32B853C854D815E812417350787
:1005F40034F08C899D89892B09F494C09FC0320101
:10060400EE89FF898085918505974816590688F7F4
:100614002CA13DA1412F502FC501B4010E943D11D1
:100624000E94C9086A8F7B8F8C8F9D8F0E94261130
:100634006A30710514F069E070E08AA19BA1892BEE
:1006440069F46115710551F4988D973639F4F7FE04
:1006540005C03601EFEF6E1A7E0A38C02C893D8939
:10066400232B99F4F7FE11C03FEF431A530AF1010B
:10067400E60DF71D4EE240838B819C8101979C839C
:100684008B83E1E0F0E0FD8BEC8BF101E40DF51DD3
:1006940036016114710431F020E3219331E0631ACF
:1006A4007108F7CFC601840D951D2B813C812C194F
:1006B4003D092C014FEF441A540AF101E80FF91FC8
:1006C400605D6083C90101979C838B832A8D3B8D78
:1006D4004C8D5D8D6CA17DA1812F902F0E944111C5
:1006E400A50194010E9403114B015C01B7FAB09477
:1006F400B7F8B09420E030E040E251E46CA17DA171
:10070400812F902F0E943D116CA37DA3182F092FD8
:1007140091E0E91AF108EB85FC853196FC87EB87BB
:10072400630160CFF985F4FF09C0F101E40DF51D03
:100734008EE2808392012F5F3F4F2901A101440D76
:10074400551D5E834D83FA011082FF85F53609F04D
:1007540063C0E8A1F9A1E20DF31D3197108229814C
:100764003A8137FF08C03195219531093A832983AD
:1007740001E010E002C000E010E0E8A1F9A1319727
:10078400E20DF31D22E030E08AE0E82EF12CCF01E7
:100794008219930949815A81452B91F089819A8163
:1007A400B7010E943A10805D829369837A83215055
:1007B40031094B815C81415051095C834B83E7CF04
:1007C400121613065CF3FC013197E20DF31D012BA5
:1007D40011F42BE201C02DE220830297B101680FCE
:1007E400791F598D252F550F330B215431092A3187
:1007F400310510F025E601C025E4FB0120832B819F
:100804003C81225031093C832B834816590624F439
:100814008D819E810E94F310398531FF29C030FDFE
:1008240027C04B815C811416150614F5C1010E9482
:100834009310820D931D9C0122193309488959890B
:10084400241735074CF0FC012081EB81FC81E80F73
:10085400F91F20830197EFCF4B815C8160E370E047
:1008640088899989820D931D0E94E1101B8A1A8A36
:10087400C1010E94931009851A852A893B89AC011C
:10088400B1018E8D9F8D0E94B80DA596E2E10C9466
:10089400F30F598553FFB7CC80E2A8CCF5E6FF8768
:0808A400DCCD36E63F87D9CD1B
:1008AC00AEE0B0E0ECE5F4E00C94DA0F4C016B0137
:1008BC001A8219828FEF9FEF9C838B831E821D827D
:1008CC0058874F833A872987A12CB12CD6016D907C
:1008DC007C90F301EA0DFB1D808181110FC0D601C4
:1008EC00ED93FC938081853209F0D3C13F01BFEFBA
:1008FC006B1A7B0AF6017182608219C0853279F31A
:10090C00B401082E000C990B0E94720C4FEFA41A24
:10091C00B40ADCCF8C32ACF08D32F9F489819A8137
:10092C0081609A8389833196D601ED93FC93D6012D
:10093C00ED91FC9180818B3269F789819A81846079
:10094C00F0CF803221F489819A818860EACF83329A
:10095C0051F489819A818061E4CF803321F48981BB
:10096C009A818260DECFB701C6010E94570E9E832A
:10097C008D8397FF0BC029813A81B1E02B273A83F5
:10098C0029839195819591099E838D8389819A8183
:10099C0080FF03C08D7F9A838983D601ED91FC91F2
:1009AC00119780818E3249F43196ED93FC93B70107
:1009BC00C6010E94570E9C838B83C6010E943E0F7A
:1009CC00582ED601ED91FC918081082E000C990BCC
:1009DC000E94FB10893609F443C084F4833609F471
:1009EC0002C134F4853209F427C18136E1F030C1FB
:1009FC008436B1F188360CF4D9C02AC1803709F499
:100A0C009AC03CF48E3609F4BCC08F3609F461C030
:100A1C001FC1853709F440C0883709F476C0833785
:100A2C0009F016C1F3C0652D70E0A701CE010B963D
:100A3C000E945E0F892B09F426C1D601ED91FC9121
:100A4C001197CF0101968D939C932081AE01455F48
:100A5C005F4FBE016F5F7F4FC4010E94000010C149
:100A6C00652D70E0970141E050E0CE010B960E949D
:100A7C00870A892B09F407C1F601808191810196BF
:100A8C0091838083AE01455F5F4FBE016F5F7F4FE7
:100A9C00C4010E943C09F4C0652D70E0970140E050
:100AAC0050E0CE010B960E94870A892B09F4EBC00B
:100ABC00D6018D919C91119701968D939C93AE01CB
:100ACC00455F5F4FBE016F5F7F4FC4010E94BE0C3C
:100ADC00D7C0652D70E0970140E050E0CE010B9639
:100AEC000E94870A892B09F4CEC0F601808191817E
:100AFC00019691838083AE01455F5F4FBE016F5FAE
:100B0C007F4FC4010E94190CBBC0652D70E097018A
:100B1C0040E050E0CE010B960E94870A892B09F425
:100B2C00B2C0D601ED91FC911197CF0101968D9336
:100B3C009C9320811CC0970140E050E060EF70E076
:100B4C00CE010B960E94870A892B09F49CC0F601F2
:100B5C00808191810196918380838B859C85892BE3
:100B6C0029F420E030E04DEA53E084C028E7AE01E0
:100B7C00455F5F4FBE016F5F7F4FC4010E94DB0773
:100B8C007FC0A501400F511F652D70E09701CE016C
:100B9C000B960E940000892B09F475C0D6018D912B
:100BAC009C91119701968D939C9373C0652D70E069
:100BBC00A701CE010B960E945E0F892B09F463C02E
:100BCC00D601ED91FC911197CF0101968D939C93D9
:100BDC002081AE01455F5F4FBE016F5F7F4FC40147
:100BEC000E94C2004DC0B0E85B124DC0F60180817E
:100BFC009181019691838083D701ED91FC9111979E
:100C0C00CF0102968D939C93808120C0B0E85B123B
:100C1C003AC0F60180819181019691838083D7013E
:100C2C00ED91FC911197CF0102968D939C9340818D
:100C3C00518120E030E01EC0B0E85B1224C0F60108
:100C4C00208131812F5F3F4F318320838B870DC0F3
:100C5C0085E28B87D6016D927C921A8219821E8254
:100C6C001D828FEF9FEF9C838B8321E030E0AE01E0
:100C7C00455F5F4FBE016F5F7F4FC4010E94850EC1
:100C8C008A0D9B1D07C0F60180819181019691838D
:0C0C9C008083C5012E96EFE00C94F60F4B
:100CA8006F927F928F929F92AF92BF92CF92DF9274
:100CB800EF92FF920F931F93CF93DF93CDB7DEB7D9
:100CC800A4970FB6F894DEBF0FBECDBF0E94851063
:100CD8002FEF30E782E0215030408040E1F700C03C
:100CE80000000E94F10D4B015C01C72ED82EE92EA1
:100CF800FF24FF92EF92DF92CF9282E093E09F93DE
:100D08008F938E010F5F1F4F1F930F930E946210E6
:100D1800C8010E94BB0B9FEF2DE339E4915020409E
:100D28003040E1F700C0000043E0C701B6010E946F
:100D38007E0F0FB6F894DEBF0FBECDBF881105C079
:100D48008AE093E00E94BB0B04C081E193E00E941B
:100D5800BB0B3FEF83ED90E3315080409040E1F7CB
:100D680000C0000080E80E94AF0E84E50E94AC102D
:100D78000E94D8102FEF36E781E0215030408040A4
:100D8800E1F700C0000080E80E94AF0E80E00E94FA
:100D9800AC100E94D8109FEF29E638E1915020400E
:100DA8003040E1F700C0000081E80E94AF0E0E94C9
:100DB800B710882E0E94B710982E0E94B710682E80
:100DC8000E94B710A82E0E94B710B82E0E94C21019
:100DD800782E0E94D810692D70E07B01F8286B2DC1
:100DE80070E08B011A29FF92EF928CE193E09F93B8
:100DF8008F93CE0101966C019F938F930E9462108E
:100E0800C6010E94BB0B9FEF23ED30E391502040B9
:100E18003040E1F700C000001F930F9386E293E093
:100E28009F938F93DF92CF920E946210C6010E9417
:100E3800BB0B8FEF93ED20E3815090402040E1F70A
:100E480000C0000089A29AA262E070E0CE018196FB
:100E58000E9426100FB6F894DEBF0FBECDBF6812F1
:100E680005C080E393E00E94BB0B04C08DE393E0D0
:100E78000E94BB0B3FEF83ED90E3315080409040E0
:100E8800E1F700C00000ABA2BCA262E070E0CE01B6
:100E980083960E942610781205C08CE493E00E9485
:100EA800BB0B04C088E593E00E94BB0B2FEF33ED2A
:100EB80080E3215030408040E1F700C00000B701D6
:100EC80080E090E00E94050D20E030E045E253E428
:100ED8000E94411120E03FEF4FE757E40E943D1187
:100EE80020E030E040E252E40E9403119F938F9388
:100EF8007F936F9386E693E09F938F939E012F5F76
:100F08003F4F79013F932F930E946210C7010E94BF
:100F1800BB0B3FEF83ED90E3315080409040E1F709
:100F280000C00000B80180E090E00E94050D20E0BC
:100F380030E048EC52E40E94411120E03FEF4FE7D7
:100F480057E40E943D119F938F937F936F9383E79C
:100F580093E09F938F93FF92EF920E946210C701D4
:100F68000E94BB0B2FEF33ED80E3215030408040CF
:100F7800E1F700C000000FB6F894DEBF0FBECDBF8A
:100F880080E090E0A4960FB6F894DEBF0FBECDBF08
:100F9800DF91CF911F910F91FF90EF90DF90CF904D
:0E0FA800BF90AF909F908F907F906F900895B4
:100FB600AFE0B0E0E1EEF7E00C94D70F1C016B0157
:100FC6005A8349832B83FB01828193818480958098
:100FD60000811181A680B78097FD02C00D7F02C0F7
:100FE60081E090E0E981FA814080518062807380DF
:100FF6009801207133273D832C83740104FF08C0B8
:10100600411451046104710419F032E0E31AF10845
:10101600F801E870FF27FF83EE8303FF03C0F1E0CA
:10102600EF1AF108F6010084F185E02D3197FF876C
:10103600EE87EA0DFB1D10829C012E193F093987A8
:101046002887C801827099279B878A87EB818E2F14
:10105600EE0F990B9C01215431093D872C872E8573
:101066003F852230310530F48C819D81892B09F032
:1010760042C05CC0411451046104710461F18E8563
:101086009F8501979F878E87C2018F7099278A3027
:10109600910514F4C09602C0895A9F4FEC85FD85D0
:1010A6007A9748F49C012062215631092A3131058C
:1010B60010F40E94EA10EE85FF85EA0DFB1D808381
:1010C600F1E0EF1AF10884E0769467945794479418
:1010D6008A95D1F7C4CF888599858E0D9F1D1816E0
:1010E60019066CF21E141F040CF0BECFEA85FB85B0
:1010F600EF2B29F6B9CFE981FA8180819181A2810E
:10110600B381892B8A2B8B2B89F0EE85FF85EA0D1F
:10111600FB1D31972B8120838E859F8502979F87A4
:101126008E87FC01EA0DFB1D80E38083EE81FF8143
:10113600EF2B59F02E853F85215031093F872E87A9
:10114600F901EA0DFB1D80E28083F6014085518599
:10115600415051092E853F85421B530BB9016A0D3B
:101166007B1D9401C1010E94B80D9C01F101808193
:10117600918190FF06C0F6018281938182179307C1
:0C1186000CF4C9012F96E2E10C94F30F69
:101192008F929F92AF92BF92CF92DF92EF92FF9285
:1011A2000F931F938B019C0157E136952795179555
:1011B20007955A95D1F71127A8014F575109473181
:1011C20051050CF045C057FD2DC00FEF1FEF2FE763
:1011D20030E004C035952795179507954A95D2F7C3
:1011E2004801590186229722A822B92289288A28F1
:1011F2008B2871F197FF07C0DC01CB01800F911F93
:10120200A21FB31F02C0DC01CB01009510952095EF
:10121200309580239123A223B323482F392F2A2FDD
:101222005B2F1AC097FF0FC08B019C01000F111F8B
:10123200221F331F012B022B032B51F040E030E021
:1012420020E85FEB09C040E030E020E050E004C05D
:10125200462F372F282F592F642F732F822F952F28
:101262001F910F91FF90EF90DF90CF90BF90AF90C2
:061272009F908F9008958B
:10127800A2E0B0E0E2E4F9E00C94D70F3C016B0186
:10128800FB0122813381A480B580808191819A837A
:10129800898386809780FA0120803180428053803C
:1012A800B201A10157FE07C044275527BA014219C8
:1012B80053096409750937FD03C08D7F9A838983B3
:1012C800950157FC05C0898182FD02C083FF02C0D9
:1012D80021503109CE0101967C010AE010E0C601D7
:1012E8000E94560B57FC03C0298122FF0AC00197B0
:1012F800F401E80FF91F57FC02C02BE209C02DE2E8
:1013080007C023FF06C00197F401E80FF91F20E288
:10131800208309811A81F601408551854150510980
:10132800481B590BB401680F791F9501C3010E942E
:10133800B80D9C01F3018081918190FF06C0F601F0
:1013480082819381821793070CF4C9012296E2E106
:041358000C94F30FEF
:10135C0010C00E94111158F00E940A1140F029F49B
:10136C005F3F29F00C942D1151110C9419110C9410
:10137C0045110E94FA0E68F39923B1F3552391F3AA
:10138C00951B550BBB27AA2762177307840738F0E8
:10139C009F5F5F4F220F331F441FAA1FA9F335D045
:1013AC000E2E3AF0E0E832D091505040E695001CF9
:1013BC00CAF72BD0FE2F29D0660F771F881FBB1FB3
:1013CC00261737074807AB07B0E809F0BB0B802D91
:1013DC00BF01FF2793585F4F3AF09E3F510578F0BD
:1013EC000C942D110C9419115F3FE4F3983ED4F337
:1013FC00869577956795B795F7959F5FC9F7880F91
:10140C00911D9695879597F90895E1E0660F771FE2
:10141C00881FBB1F621773078407BA0720F0621B73
:0E142C00730B840BBA0BEE1F88F7E095089542
:10143A000FC00E940A1138F00E94111120F0952362
:10144A0011F00C942D110C94451111240C941911BE
:10145A000E94FA0E70F3959FC1F3950F50E0551F45
:10146A00629FF001729FBB27F00DB11D639FAA27EF
:10147A00F00DB11DAA1F649F6627B00DA11D661F3E
:10148A00829F2227B00DA11D621F739FB00DA11D5F
:10149A00621F839FA00D611D221F749F3327A00D19
:1014AA00611D231F849F600D211D822F762F6A2FB5
:1014BA0011249F5750409AF0F1F088234AF0EE0F1A
:1014CA00FF1FBB1F661F771F881F91505040A9F747
:1014DA009E3F510580F00C942D110C9419115F3F19
:1014EA00E4F3983ED4F3869577956795B795F79583
:1014FA00E7959F5FC1F7FE2B880F911D96958795FB
:04150A0097F90895B0
:10150E00CF93DF93DC01F90168387105F1F05CF4DB
:10151E006138710561F164387105A1F160387105AA
:10152E0009F051C02FC0603C710509F441C0603F05
:10153E007105F1F1603A710509F045C0C081D181A4
:10154E00CE0102969183808325C0C081D181CE01C8
:10155E00029691838083452B39F04881042E000C2E
:10156E00550B660B770B1CC0488150E029C0C0811B
:10157E00D181CE01049691838083488159816A81FD
:10158E007B810EC0C081D181CE0102969183808372
:10159E00452BA1F048815981052E000C660B770B67
:1015AE004D935D936D937C93139781E090E00DC006
:1015BE00C081D181CE010296918380834881598169
:1015CE0060E070E0EDCF80E090E0DF91CF91089584
:1015DE0011C00E940A1138F00E94111120F039F446
:1015EE009F3F19F426F40C9445110EF4E095E7FB99
:1015FE000C942D11E92F0E94FA0E58F3BA176207B8
:10160E0073078407950720F079F4A6F50C9418114A
:10161E000EF4E0950B2EBA2FA02D0B01B9019001FF
:10162E000C01CA01A0011124FF27591B99F0593F43
:10163E0050F4503E68F11A16F040A22F232F342F8B
:10164E004427585FF3CF469537952795A795F040D9
:10165E005395C9F77EF41F16BA0B620B730B840BEE
:10166E00BAF09150A1F0FF0FBB1F661F771F881FA6
:10167E00C2F70EC0BA0F621F731F841F48F48795FE
:10168E0077956795B795F7959E3F08F0B0CF9395F0
:0E169E00880F08F09927EE0F9795879508950D
:1016AC00A0E0B0E0ECE5FBE00C94D90FDC012801E4
:1016BC001696AD90BC901797F70180819181129688
:1016CC00ED91FC9113971896CD91DC911997219778
:1016DC00F7FF02C0E1E0F0E0CA0DDB1D18826901E2
:1016EC00A1E0B0E08F01021B130B4C01F2E08F2242
:1016FC009924052C000C66087708CE018A199B09E1
:10170C00CA15DB0519F1411551056105710589F003
:10171C00CB01BA01A30192010E941C0FCA01A62F92
:10172C00B72F605D6A9341E0C41AD108A901BC01CE
:10173C00E4CF98012C0D3D1D121613064CF31C140E
:10174C001D0434F48114910419F702C080E090E078
:10175C00AB2B31F4F701208131812F7E3183208333
:0A176C00CDB7DEB7E0E10C94F50FF5
:101776000F931F93CF93DF938C018FEF80930A0112
:1017860084B1806E84B984B1806784B98FE295E7AD
:101796000197F1F700C00000CBE0D1E080E3888339
:1017A6000E94A1108FE097E20197F1F700C00000B8
:1017B6000E94A1108FEC97E00197F1F700C000009E
:1017C6000E94A1108FEC97E00197F1F700C000008E
:1017D6002D9888E388830E94A11092E69A95F1F7E6
:1017E60000C02D988EE088830E94A11082E68A951B
:1017F600F1F700C02D9886E088830E94A11092E63A
:101806009A95F1F700C02D9881E088830E94A11077
:101816008FE99FE00197F1F700C00000C8010E9420
:0C1826009D0FDF91CF911F910F9108954D
:10183200A2E0B0E0EFE1FCE00C94DB0F4C016B01A5
:10184200FB012281338164807580808191819A833A
:101852008983A680B78037FD03C08D7F9A838983F1
:10186200FA014081518162817381CE0101967C012E
:1018720008E010E09301C6010E94560B298124FF63
:1018820006C00197F501E80FF91F20E320832981A3
:1018920023FF06C00197F501E80FF91F20E220831C
:1018A20009811A81F6014085518541505109481B31
:1018B200590BB501680F791F9301C4010E94B80D3D
:1018C2009C01F4018081918190FF06C0F601828122
:1018D2009381821793070CF4C9012296EEE00C94CF
:0218E200F70FFE
:1018E4000F931F93CF93DF93DB01109719F48FEFBE
:1018F4009FEF3DC02D913C91119730FF25C0169666
:101904004D915C91179714962D913C911597421720
:10191400530778F41296ED91FC91139780831296F5
:101924002D913C9113972F5F3F4F13963C932E9329
:10193400129716962D913C9117972F5F3F4F17964C
:101944003C932E93169713C01C96ED91FC911D9712
:10195400309769F2EB01092F182F1995892B39F665
:101964008E819F8101969F838E83812F902FDF919B
:08197400CF911F910F9108951E
:10197C00A2E0B0E0E4ECFCE00C94DB0F5C016B014A
:10198C00FB012281338184809580808191819A83AF
:10199C0089836680778037FD03C08D7F9A83898326
:1019AC00FA014081518162817381CE0101967C01E3
:1019BC000AE010E09401C6010E94560B09811A81BD
:1019CC00F6014085518541505109481B590BB30113
:1019DC00680F791F9401C5010E94B80D9C01F50197
:1019EC008081918190FF06C0F601828193818217DC
:0E19FC0093070CF4C9012296EEE00C94F70F4D
:101A0A00E89409C097FB3EF490958095709561958E
:101A1A007F4F8F4F9F4F9923A9F0F92F96E9BB2744
:101A2A009395F695879577956795B795F111F8CFC0
:101A3A00FAF4BB0F11F460FF1BC06F5F7F4F8F4F2B
:101A4A009F4F16C0882311F096E911C0772321F021
:101A5A009EE8872F762F05C0662371F096E8862FB9
:101A6A0070E060E02AF09A95660F771F881FDAF710
:0A1A7A00880F9695879597F9089557
:101A8400A2E8B0E0E8E4FDE00C94DD0F5C014A015B
:101A9400CF57DF4F79836883C158D040C12CD12CF4
:101AA400CF57DF4FE881F981C158D0408081882326
:101AB400E9F07401860120E830E0AE014F5F5F4F2A
:101AC400BE016F577F4FC5010E9456048C0D9D1DAA
:101AD4008C159D054CF48FE490E090930102809363
:101AE40000028FEF9FEF03C06C01DACFC601CE571F
:081AF400DF4FECE00C94F90F48
:101AFC00A0E1B0E0E4E8FDE00C94E30FFB01BA01D7
:101B0C00AE014F5F5F4F7A0140E1D7011D924A95BC
:101B1C00E9F742E051E05A8349839C838B83F7FFBA
:101B2C0009C08FE490E090930102809300028FEF44
:101B3C009FEF14C0A9018C013197FE83ED83C7017F
:101B4C000E940E104F8158852D813E8142175307FC
:101B5C0008F49A01F801E20FF31F10826096E6E098
:041B6C000C94FF0FC7
:101B7000A0E0B0E0EEEBFDE00C94DD0F6C015B014A
:101B80007A01E901480181E08822992400FD03C01F
:101B90004217530750F0A701B501C6010E94BA0FC2
:101BA000EC16FD0610F0C70117C08E010E191F09B3
:101BB0000115110541F0B60180E290E00E94720C1F
:101BC00001501109F5CF8114910429F4A701B50141
:101BD000C6010E94BA0FCE01CDB7DEB7ECE00C947F
:021BE000F90FFB
:101BE2000F931F93CF93DF9380E80E94AF0E8AE09A
:101BF2000E94AC100E94D8102FEF86E791E021508E
:101C020080409040E1F700C0000081E80E94AF0EE2
:101C12000E94B710082F0E94B710C82F0E94B71059
:101C2200D82F0E94C210182F0E94D8108C2F90E03B
:101C3200A0E0B0E0DC0199278827B02B812BBC0102
:0E1C4200CD017D2BDF91CF911F910F91089561
:101C50000E94020F88F09F5798F0B92F9927B7512B
:101C6000B0F0E1F0660F771F881F991F1AF0BA9540
:101C7000C9F714C0B13091F00E941811B1E0089575
:101C80000C941811672F782F8827B85F39F0B93F67
:101C9000CCF3869577956795B395D9F73EF49095F3
:0E1CA0008095709561957F4F8F4F9F4F0895EF
:101CAE00DC01ED91FC91119780818A3221F080E068
:101CBE0090E03AE00EC03196ED93FC93DB01ED918E
:101CCE00FC911197CF0102968D939C938081918107
:101CDE000895ED91FC911197208120532A3068F4DC
:101CEE00389FA001399F500D1124CA01820F911DFA
:0C1CFE0031961196FC93EE93ECCF089504
:101D0A00A0E0B0E0EBE8FEE00C94DF0F7C01FB0101
:101D1A00EA01C901A280B380C480D5800081118103
:101D2A00209711F4C6EAD3E0009719F4CE010E9475
:101D3A009310B7FC04C0A816B90608F4C5019601A9
:101D4A00AC01BE01C7010E94B80DCDB7DEB7EAE00B
:041D5A000C94FB0FDB
:101D5E0094EA9093BC00ECEBF0E090819923ECF7C1
:101D6E009091B900987F983011F09031A1F4809342
:101D7E00BB0084E88093BC00ECEBF0E0808188230C
:101D8E00ECF79091B900987F983139F081E090345A
:0E1D9E0029F480E0089581E0089580E0089522
:101DAC00990F0008550FAA0BE0E8FEEF1616170660
:101DBC00E807F907C0F012161306E407F50798F0C8
:101DCC00621B730B840B950B39F40A2661F0232BE1
:101DDC00242B252B21F408950A2609F4A140A6955D
:081DEC008FEF811D811D089598
:101DF40057FD9058440F551F59F05F3F71F04795B8
:101E0400880F97FB991F61F09F3F79F0879508959C
:101E1400121613061406551FF2CF4695F1DF08C0BB
:101E2400161617061806991FF1CF869571056105D8
:041E34000894089571
:101E3800A1E21A2EAA1BBB1BFD010DC0AA1FBB1FC6
:101E4800EE1FFF1FA217B307E407F50720F0A21B38
:101E5800B30BE40BF50B661F771F881F991F1A94A5
:101E680069F760957095809590959B01AC01BD01CF
:041E7800CF010895F9
:101E7C00CF93DF93EC0190E0E92FF0E0EE0FFF1F22
:101E8C00E058FC4F8081811102C081810EC0A88175
:101E9C00B9812C91821305C091811196B983A883C5
:101EAC0001C09F5F9B3040F3892FDF91CF91089544
:101EBC00FA0160387105CCF0623871051CF063389A
:101ECC00710599F4A081B1819D012C5F3F4F318345
:101EDC0020834D915D916D917C91FC0140835183E8
:101EEC006283738381E090E0089580E090E0089530
:101EFC00CF93DF9300D00F92CDB7DEB799838A834F
:101F0C007B836C83642F70E084E090E0861B970BDE
:101F1C0021E030E02C0F3D1F820F931F0E942610F2
:0E1F2C000F900F900F900F90DF91CF910895BE
:101F3A000F931F93CF93DF93FC012081222381F01B
:101F4A00EC010BE011E02D9A8991F80180830E943F
:101F5A00A110FDE6FA95F1F7000088818111F3CF0F
:0A1F6A00DF91CF911F910F910895B0
:101F7400A0E0B0E0E0ECFFE00C94E10F6C01EB01B9
:101F84008A017B01E40EF51ECE15DF0541F089912F
:101F9400B601082E000C990B0E94720CF5CFC801F3
:0A1FA400CDB7DEB7E8E00C94FD0FA6
:101FAE002F923F924F925F926F927F928F929F925B
:101FBE00AF92BF92CF92DF92EF92FF920F931F9349
:101FCE00CF93DF93CDB7DEB7CA1BDB0B0FB6F894FA
:081FDE00DEBF0FBECDBF199458
:101FE6002A88398848885F846E847D848C849B84A3
:101FF600AA84B984C884DF80EE80FD800C811B81B1
:10200600AA81B981CE0FD11D0FB6F894DEBF0FBEDF
:06201600CDBFED010895AD
:10201C00A2E0B0E0E4E1F0E10C94E50F8C015A830E
:10202C004983AE014F5F5F4F0E94420DF801208142
:10203C0024FF02C08FEF9FEF2296E4E00C94011076
:10204C006115710579F0DC01680F791F80E0ED9165
:10205C008E27E82FF0E0EE5FFD4F8081A617B707C3
:08206C00B1F7089580E008952A
:1020740097FB072E16F4009407D077FD09D00E9431
:102084004E1007FC05D03EF4909581959F4F08951E
:08209400709561957F4F0895DE
:10209C00AA1BBB1B51E107C0AA1FBB1FA617B70782
:1020AC0010F0A61BB70B881F991F5A95A9F780959E
:0820BC009095BC01CD010895CF
:1020C400A0E0B0E0E8E6F0E10C94E70FAE01465F73
:1020D4005F4F688579858E819F810E941F11E2E0A0
:0420E4000C94031045
:1020E800092E0394000C11F4882352F0BB0F40F41E
:1020F800BF2B11F460FF04C06F5F7F4F8F4F9F4F5E
:02210800089538
:10210A0082E18093B8001092B9008FEF8093BB00F0
:0C211A0084E08093BC0080E090E0089519
:10212600FC01AF014F5F5F4F2081222311F0FA01BE
:0C213600F8CF9F01281B390BC901089548
:102142002F9A85E38A95F1F700002F9885E38A9507
:06215200F1F70000089502
:102158008093BB0084E88093BC00ECEBF0E08081C6
:062168008823ECF7089546
:10216E0084EC8093BC00ECEBF0E080818823ECF7EC
:06217E008091BB000895F2
:1021840086E88093BC00ECEBF0E080818823ECF7D8
:062194008091BB000895DC
:10219A00EC010E944D110E944C11CE010E944E1179
:0621AA00CE010E944A1163
:1021B00084E98093BC00ECEBF0E0808184FDFDCFEE
:0221C000089580
:1021C200FC01480F591FE417F50711F06193FBCF8B
:0221D20008956E
:1021D4009C01215631092A31310510F48F75992754
:0221E40008955C
:1021E600FC01DB012D91BD0121932111FACF089548
:1021F6009C01215431092A31310508F48062089581
:0E2206005058BB27AA270E94EF0A0C947410B0
:0E22140000240A9416161706180609060895E7
:0E22220000240A9412161306140605060895E9
:0E223000E894BB2766277727CB0197F908951E
:0E223E009A01AB016FEF7FE70E947E0D0895BD
:0E224C000E94280E6894B1110C941911089587
:0C225A0097F99F6780E870E060E008954D
:0A2266000E94D60E08F481E00895EE
:0A2270000E94D60E08F48FEF0895C7
:08227A000E94AE090C947410DF
:082282000E941D0A0C94741067
:06228A009FEF80EC0895B7
:042290000C940000AA
:042294000E94C000E4
:022298000895A7
:02229A000895A5
:02229C000895A3
:10229E0000316253C4F5A697B988DBEA7D4C1F2E38
:1022AE004372211087B6E5D4FACB98A93E0F5C6D28
:1022BE0086B7E4D5427320113F0E5D6CFBCA99A818
:1022CE00C5F4A796013063527C4D1E2FB889DAEB08
:1022DE003D0C5F6EF9C89BAA84B5E6D740712213F8
:1022EE007E4F1C2DBA8BD8E9C7F6A59403326150E8
:1022FE00BB8AD9E87F4E1D2C02336051C6F7A495D8
:10230E00F8C99AAB3C0D5E6F4170231285B4E7D6C7
:10231E007A4B1829BE8FDCEDC3F2A19007366554B7
:10232E0039085B6AFDCC9FAE80B1E2D344752617A7
:10233E00FCCD9EAF38095A6B4574271681B0E3D297
:10234E00BF8EDDEC7B4A192806376455C2F3A09187
:10235E004776251483B2E1D0FECF9CAD3A0B586977
:10236E0004356657C0F1A293BD8CDFEE79481B2A67
:10237E00C1F0A3920534675678491A2BBC8DDEEF57
:10238E0082B3E0D1467724153B0A5968FFCE9DAC47
:10239E00534E3A20256C7500435243204F4B004359
:1023AE005243206661696C656400545F5241573A2E
:1023BE0020257500485F5241573A20257500546517
:1023CE006D70204352433A204F4B0054656D702080
:1023DE004352433A204641494C0048756D204352C2
:1023EE00433A204F4B0048756D204352433A2046E6
:1023FE0041494C0054656D703A20252E32662043BB
:0E240E000048756D3A20252E326620252500E7
:10241C0068076C094C836A9074A07AC00080688845
:06242C0000846C820081B7
:10243200494E4600696E66004E414E006E616E0066
:07244200286E756C6C290087
:06244900286E696C2900F9
:00000001FF
